{
  "abi": [
    {
      "type": "function",
      "name": "getValues",
      "inputs": [
        {
          "name": "systemid",
          "type": "uint8",
          "internalType": "uint8"
        },
        {
          "name": "chainid",
          "type": "uint64",
          "internalType": "uint64"
        }
      ],
      "outputs": [
        {
          "name": "value",
          "type": "bytes",
          "internalType": "bytes"
        }
      ],
      "stateMutability": "view"
    },
    {
      "type": "function",
      "name": "setValues",
      "inputs": [
        {
          "name": "sid",
          "type": "uint8",
          "internalType": "uint8"
        },
        {
          "name": "cid",
          "type": "uint64",
          "internalType": "uint64"
        },
        {
          "name": "timestamp",
          "type": "uint48",
          "internalType": "uint48"
        },
        {
          "name": "height",
          "type": "uint64",
          "internalType": "uint64"
        },
        {
          "name": "payload",
          "type": "bytes",
          "internalType": "bytes"
        }
      ],
      "outputs": [],
      "stateMutability": "nonpayable"
    }
  ],
  "bytecode": {
    "object": "0x6080604052348015600e575f80fd5b506105b78061001c5f395ff3fe608060405234801561000f575f80fd5b5060043610610034575f3560e01c8063af58ffe814610038578063c3a5679414610061575b5f80fd5b61004b61004636600461030e565b610076565b604051610058919061033f565b60405180910390f35b61007461006f366004610374565b61018f565b005b60ff82165f9081526020818152604080832067ffffffffffffffff808616855292529091206001810154606092600160301b909104166100fd5760405162461bcd60e51b815260206004820152601a60248201527f6e6f20657374696d6174696f6e7320666f72206e6574776f726b00000000000060448201526064015b60405180910390fd5b8054819061010a9061042f565b80601f01602080910402602001604051908101604052809291908181526020018280546101369061042f565b80156101815780601f1061015857610100808354040283529160200191610181565b820191905f5260205f20905b81548152906001019060200180831161016457829003601f168201915b505050505091505092915050565b60ff86165f9081526020818152604080832067ffffffffffffffff808a168552925290912060018101549091600160301b909104811690851610156102245760405162461bcd60e51b815260206004820152602560248201527f6e6577657220626c6f636b20657374696d6174696f6e20616c72656164792065604482015264786973747360d81b60648201526084016100f4565b600181015465ffffffffffff908116908616116102955760405162461bcd60e51b815260206004820152602960248201527f6e657765722074696d657374616d7020657374696d6174696f6e20616c72656160448201526864792065786973747360b81b60648201526084016100f4565b60018101805467ffffffffffffffff8616600160301b026dffffffffffffffffffffffffffff1990911665ffffffffffff881617179055806102d88385836104c7565b5050505050505050565b803560ff811681146102f2575f80fd5b919050565b803567ffffffffffffffff811681146102f2575f80fd5b5f806040838503121561031f575f80fd5b610328836102e2565b9150610336602084016102f7565b90509250929050565b602081525f82518060208401528060208501604085015e5f604082850101526040601f19601f83011684010191505092915050565b5f805f805f8060a08789031215610389575f80fd5b610392876102e2565b95506103a0602088016102f7565b9450604087013565ffffffffffff811681146103ba575f80fd5b93506103c8606088016102f7565b9250608087013567ffffffffffffffff8111156103e3575f80fd5b8701601f810189136103f3575f80fd5b803567ffffffffffffffff811115610409575f80fd5b89602082840101111561041a575f80fd5b60208201935080925050509295509295509295565b600181811c9082168061044357607f821691505b60208210810361046157634e487b7160e01b5f52602260045260245ffd5b50919050565b634e487b7160e01b5f52604160045260245ffd5b601f8211156104c257805f5260205f20601f840160051c810160208510156104a05750805b601f840160051c820191505b818110156104bf575f81556001016104ac565b50505b505050565b67ffffffffffffffff8311156104df576104df610467565b6104f3836104ed835461042f565b8361047b565b5f601f841160018114610524575f851561050d5750838201355b5f19600387901b1c1916600186901b1783556104bf565b5f83815260208120601f198716915b828110156105535786850135825560209485019460019092019101610533565b508682101561056f575f1960f88860031b161c19848701351681555b505060018560011b018355505050505056fea2646970667358221220bd777b3efae4169f3b0f01d3890dbf8a86b2e365bc8f9cd1c777bdee3bc68cd564736f6c634300081a0033",
    "linkReferences": {}
  },
  "methodIdentifiers": {
    "getValues(uint8,uint64)": "af58ffe8",
    "setValues(uint8,uint64,uint48,uint64,bytes)": "c3a56794"
  },
  "id": 25
}